{
  "_format": "hh-sol-artifact-1",
  "contractName": "TriceratopsStaking",
  "sourceName": "contracts/staking/Triceratop.sol",
  "abi": [
    {
      "inputs": [
        {
          "internalType": "contract IERC721",
          "name": "_nftCollection",
          "type": "address"
        },
        {
          "internalType": "contract IERC20",
          "name": "_rewardsToken",
          "type": "address"
        }
      ],
      "stateMutability": "nonpayable",
      "type": "constructor"
    },
    {
      "inputs": [
        {
          "internalType": "address",
          "name": "_staker",
          "type": "address"
        }
      ],
      "name": "availableRewards",
      "outputs": [
        {
          "internalType": "uint256",
          "name": "",
          "type": "uint256"
        }
      ],
      "stateMutability": "view",
      "type": "function"
    },
    {
      "inputs": [],
      "name": "claimRewards",
      "outputs": [],
      "stateMutability": "nonpayable",
      "type": "function"
    },
    {
      "inputs": [
        {
          "internalType": "address",
          "name": "_user",
          "type": "address"
        }
      ],
      "name": "getStakedTokens",
      "outputs": [
        {
          "components": [
            {
              "internalType": "address",
              "name": "staker",
              "type": "address"
            },
            {
              "internalType": "uint256",
              "name": "tokenId",
              "type": "uint256"
            }
          ],
          "internalType": "struct TriceratopsStaking.StakedToken[]",
          "name": "",
          "type": "tuple[]"
        }
      ],
      "stateMutability": "view",
      "type": "function"
    },
    {
      "inputs": [],
      "name": "nftCollection",
      "outputs": [
        {
          "internalType": "contract IERC721",
          "name": "",
          "type": "address"
        }
      ],
      "stateMutability": "view",
      "type": "function"
    },
    {
      "inputs": [],
      "name": "rewardsToken",
      "outputs": [
        {
          "internalType": "contract IERC20",
          "name": "",
          "type": "address"
        }
      ],
      "stateMutability": "view",
      "type": "function"
    },
    {
      "inputs": [
        {
          "internalType": "uint256",
          "name": "_tokenId",
          "type": "uint256"
        }
      ],
      "name": "stake",
      "outputs": [],
      "stateMutability": "nonpayable",
      "type": "function"
    },
    {
      "inputs": [
        {
          "internalType": "uint256",
          "name": "",
          "type": "uint256"
        }
      ],
      "name": "stakerAddress",
      "outputs": [
        {
          "internalType": "address",
          "name": "",
          "type": "address"
        }
      ],
      "stateMutability": "view",
      "type": "function"
    },
    {
      "inputs": [
        {
          "internalType": "address",
          "name": "",
          "type": "address"
        }
      ],
      "name": "stakers",
      "outputs": [
        {
          "internalType": "uint256",
          "name": "amountStaked",
          "type": "uint256"
        },
        {
          "internalType": "uint256",
          "name": "timeOfLastUpdate",
          "type": "uint256"
        },
        {
          "internalType": "uint256",
          "name": "unclaimedRewards",
          "type": "uint256"
        }
      ],
      "stateMutability": "view",
      "type": "function"
    },
    {
      "inputs": [
        {
          "internalType": "uint256",
          "name": "_tokenId",
          "type": "uint256"
        }
      ],
      "name": "withdraw",
      "outputs": [],
      "stateMutability": "nonpayable",
      "type": "function"
    }
  ],
  "bytecode": "0x60c0604052674563918244f4000060015534801561001c57600080fd5b5060405161112838038061112883398101604081905261003b9161006f565b60016000556001600160a01b0391821660a052166080526100a9565b6001600160a01b038116811461006c57600080fd5b50565b6000806040838503121561008257600080fd5b825161008d81610057565b602084015190925061009e81610057565b809150509250929050565b60805160a05161103f6100e96000396000818160e3015281816104610152818161081e01526108fd0152600081816101a7015261057f015261103f6000f3fe608060405234801561001057600080fd5b50600436106100935760003560e01c80639168ae72116100665780639168ae721461011d5780639406704514610166578063a694fc3a1461018f578063d1af0c7d146101a2578063f854a27f146101c957600080fd5b80632e1a7d4d14610098578063372500ab146100ad57806363c28db1146100b55780636588103b146100de575b600080fd5b6100ab6100a6366004610dc4565b6101ea565b005b6100ab6104e2565b6100c86100c3366004610df2565b6105ae565b6040516100d59190610e0f565b60405180910390f35b6101057f000000000000000000000000000000000000000000000000000000000000000081565b6040516001600160a01b0390911681526020016100d5565b61014b61012b366004610df2565b600260208190526000918252604090912080549181015460039091015483565b604080519384526020840192909252908201526060016100d5565b610105610174366004610dc4565b6003602052600090815260409020546001600160a01b031681565b6100ab61019d366004610dc4565b6107a8565b6101057f000000000000000000000000000000000000000000000000000000000000000081565b6101dc6101d7366004610df2565b610a1b565b6040519081526020016100d5565b6101f2610a53565b336000908152600260205260409020546102535760405162461bcd60e51b815260206004820152601960248201527f596f752068617665206e6f20746f6b656e73207374616b65640000000000000060448201526064015b60405180910390fd5b6000818152600360205260409020546001600160a01b031633146102b55760405162461bcd60e51b8152602060048201526019602482015278596f7520646f6e2774206f776e207468697320746f6b656e2160381b604482015260640161024a565b60006102c033610aad565b336000908152600260205260408120600301805492935083929091906102e7908490610e7d565b9091555060009050805b336000908152600260205260409020600101548110156103ac5733600090815260026020526040902060010180548591908390811061033257610332610e95565b90600052602060002090600202016001015414801561038d575033600090815260026020526040812060010180548390811061037057610370610e95565b60009182526020909120600290910201546001600160a01b031614155b1561039a578091506103ac565b806103a481610eab565b9150506102f1565b503360009081526002602052604081206001018054839081106103d1576103d1610e95565b6000918252602080832060029283020180546001600160a01b0319166001600160a01b0395909516949094179093553382529091526040812080549161041683610ec6565b90915550506000838152600360205260409081902080546001600160a01b0319169055516323b872dd60e01b8152306004820152336024820152604481018490526001600160a01b037f000000000000000000000000000000000000000000000000000000000000000016906323b872dd90606401600060405180830381600087803b1580156104a557600080fd5b505af11580156104b9573d6000803e3d6000fd5b505033600090815260026020819052604090912042910155506104df9250610b07915050565b50565b33600081815260026020526040812060030154909161050090610aad565b61050a9190610e7d565b90506000811161055c5760405162461bcd60e51b815260206004820152601c60248201527f596f752068617665206e6f207265776172647320746f20636c61696d00000000604482015260640161024a565b33600081815260026020819052604082204291810191909155600301556104df907f00000000000000000000000000000000000000000000000000000000000000006001600160a01b03169083610b0e565b6001600160a01b03811660009081526002602052604090205460609015610764576001600160a01b03821660009081526002602052604081205467ffffffffffffffff81111561060057610600610edd565b60405190808252806020026020018201604052801561064557816020015b604080518082019091526000808252602082015281526020019060019003908161061e5790505b5090506000805b6001600160a01b03851660009081526002602052604090206001015481101561075b576001600160a01b038516600090815260026020526040812060010180548390811061069c5761069c610e95565b60009182526020909120600290910201546001600160a01b031614610749576001600160a01b03851660009081526002602052604090206001018054829081106106e8576106e8610e95565b60009182526020918290206040805180820190915260029092020180546001600160a01b031682526001015491810191909152835184908490811061072f5761072f610e95565b6020026020010181905250818061074590610eab565b9250505b8061075381610eab565b91505061064c565b50909392505050565b60408051600080825260208201909252906107a1565b604080518082019091526000808252602082015281526020019060019003908161077a5790505b5092915050565b6107b0610a53565b33600090815260026020526040902054156107fe5760006107d033610aad565b336000908152600260205260408120600301805492935083929091906107f7908490610e7d565b9091555050505b6040516331a9108f60e11b81526004810182905233906001600160a01b037f00000000000000000000000000000000000000000000000000000000000000001690636352211e90602401602060405180830381865afa158015610865573d6000803e3d6000fd5b505050506040513d601f19601f820116820180604052508101906108899190610ef3565b6001600160a01b0316146108db5760405162461bcd60e51b8152602060048201526019602482015278596f7520646f6e2774206f776e207468697320746f6b656e2160381b604482015260640161024a565b6040516323b872dd60e01b8152336004820152306024820152604481018290527f00000000000000000000000000000000000000000000000000000000000000006001600160a01b0316906323b872dd90606401600060405180830381600087803b15801561094957600080fd5b505af115801561095d573d6000803e3d6000fd5b50506040805180820182523380825260208083018781526000838152600280845295812060018082018054808301825590845294832087519590980290970180546001600160a01b0319166001600160a01b03909516949094178455915192909501919091559083528054919450909250906109d883610eab565b909155505050600081815260036020908152604080832080546001600160a01b031916339081179091558352600291829052909120429101556104df6001600055565b6001600160a01b0381166000908152600260205260408120600301548190610a4284610aad565b610a4c9190610e7d565b9392505050565b60026000541415610aa65760405162461bcd60e51b815260206004820152601f60248201527f5265656e7472616e637947756172643a207265656e7472616e742063616c6c00604482015260640161024a565b6002600055565b6001546001600160a01b03821660009081526002602081905260408220805491015491926201518092909190610ae39042610f10565b610aed9190610f27565b610af79190610f27565b610b019190610f46565b92915050565b6001600055565b604080516001600160a01b038416602482015260448082018490528251808303909101815260649091019091526020810180516001600160e01b031663a9059cbb60e01b179052610b60908490610b65565b505050565b6000610bba826040518060400160405280602081526020017f5361666545524332303a206c6f772d6c6576656c2063616c6c206661696c6564815250856001600160a01b0316610c379092919063ffffffff16565b805190915015610b605780806020019051810190610bd89190610f68565b610b605760405162461bcd60e51b815260206004820152602a60248201527f5361666545524332303a204552433230206f7065726174696f6e20646964206e6044820152691bdd081cdd58d8d9595960b21b606482015260840161024a565b6060610c468484600085610c4e565b949350505050565b606082471015610caf5760405162461bcd60e51b815260206004820152602660248201527f416464726573733a20696e73756666696369656e742062616c616e636520666f6044820152651c8818d85b1b60d21b606482015260840161024a565b600080866001600160a01b03168587604051610ccb9190610fba565b60006040518083038185875af1925050503d8060008114610d08576040519150601f19603f3d011682016040523d82523d6000602084013e610d0d565b606091505b5091509150610d1e87838387610d29565b979650505050505050565b60608315610d95578251610d8e576001600160a01b0385163b610d8e5760405162461bcd60e51b815260206004820152601d60248201527f416464726573733a2063616c6c20746f206e6f6e2d636f6e7472616374000000604482015260640161024a565b5081610c46565b610c468383815115610daa5781518083602001fd5b8060405162461bcd60e51b815260040161024a9190610fd6565b600060208284031215610dd657600080fd5b5035919050565b6001600160a01b03811681146104df57600080fd5b600060208284031215610e0457600080fd5b8135610a4c81610ddd565b602080825282518282018190526000919060409081850190868401855b82811015610e5a57815180516001600160a01b03168552860151868501529284019290850190600101610e2c565b5091979650505050505050565b634e487b7160e01b600052601160045260246000fd5b60008219821115610e9057610e90610e67565b500190565b634e487b7160e01b600052603260045260246000fd5b6000600019821415610ebf57610ebf610e67565b5060010190565b600081610ed557610ed5610e67565b506000190190565b634e487b7160e01b600052604160045260246000fd5b600060208284031215610f0557600080fd5b8151610a4c81610ddd565b600082821015610f2257610f22610e67565b500390565b6000816000190483118215151615610f4157610f41610e67565b500290565b600082610f6357634e487b7160e01b600052601260045260246000fd5b500490565b600060208284031215610f7a57600080fd5b81518015158114610a4c57600080fd5b60005b83811015610fa5578181015183820152602001610f8d565b83811115610fb4576000848401525b50505050565b60008251610fcc818460208701610f8a565b9190910192915050565b6020815260008251806020840152610ff5816040850160208701610f8a565b601f01601f1916919091016040019291505056fea26469706673582212208a50852089c92be3c22b1db62158efeea0be6e25e6d6d39ffe862b92b18b9c3a64736f6c634300080b0033",
  "linkReferences": {},
  "deployedLinkReferences": {}
}